:100000000C9485020C94B6020C94B6020C94B602C1
:100010000C94B6020C94B6020C94B6020C94B60280
:100020000C94B6020C94B6020C94B6020C94B60270
:100030000C94B6020C94CD2F0C94B6020C94B6021C
:100040000C94B6020C94B6020C94B6020C94B60250
:100050000C9412200C94B6020C94B6020C94BA289C
:100060000C94B6020C94E1300C94D1310C94B6028D
:100070000C94B6020C94B6020C94B6020C94B60220
:100080000C94B6020C94B6020C94B6020C94B60210
:100090000C9415310C9410320C94B6020C94B524C7
:1000A0000C94B6020C94B6020C94B6020C94B602F0
:1000B0000C94B6020C94B6020C94B6020C94B602E0
:1000C0000C94B6020C94B6020C94B6020C9449310E
:1000D0000C944F320C94B6020C947D310C948E32F9
:1000E0000C94B6021328162809280D284D281A2822
:1000F0001E28242828282C28322836283A284D283B
:100100004028442848280B2A102A152A1F2A982AF2
:10011000292A312A392A432A4D2A572A662A702A3F
:10012000982A7A2A842A8E2A0C94F1060C9466075F
:100130000C941E070C94432A0C9489060C947607A1
:100140000C94A12A0C94FE220C94982A0C94370C3F
:100150000C9425070C9404040C9444280C940D284A
:100160000C94FA170C945B060C94D4060C942D3066
:100170000C9468050C9454070C94B6220C94572ADE
:100180000C944C040C9432070C94FA060C940A2339
:100190000C94EE060C947F180C94F7060C94842AA9
:1001A0000C9409280C94CA220C9428030C941F2A3E
:1001B0000C94FD050C942C280C94292A0C94152AD7
:1001C0000C94B1060C94E8060C94102A0C94510877
:1001D0000C944B070C9425050C94C9050C94B4049D
:1001E0000C94662A0C941B070C9425030C940B2A80
:1001F0000C942F070C940A040C94C6050C94B406B6
:100200000C9490060C944D2A0C9440280C943707BB
:100210000C944F040C94DB1B0C941C090C9484303C
:100220000C9479050C9446190C9422050C945804EE
:100230000C94EB060C94BD060C949D060C941807C8
:100240000C9424280C9483060C94F4060C941A281D
:100250000C947C060C94B80B0C9436280C94440A2D
:100260000C9495070C9469070C9428280C94B10CF5
:100270000C9475060C94C6230C947A2A0C9486066A
:100280000C94AE220C94C7090C9447060C94650597
:100290000C94550C0C9445070C94970C0C94392A2B
:1002A0000C941E280C945A070C940A070C944807C7
:1002B0000C9460070C9461060C94D2150C94B03128
:1002C0000C943A230C94DF0B0C94312A0C945E06A8
:1002D0000C94DC020C9479070C9455330C94702A1E
:1002E0000C9459300C9472070C94D9220C94B706D4
:1002F0000C9416280C944D280C9413280C94482820
:100300000C94BA060C94F40D0C942D0A0C9451071D
:100310000C9444050C94C0060C9468060C94F51FCC
:100320000C946F060C9422030C9491070C944409CE
:100330000C9449080C94410A0C943C070C94520408
:100340000C9497060C944A060C9498070C949B07FF
:100350000C942C070C9407040C94760C0C945707FF
:100360000C94DA220C943A280C947C070C945406D2
:100370000C943D300C948E2A0C9476050C946205F6
:100380000C94B8020C943F070C9455040C947C0513
:100390000C9442070C944D060C944E070C942805BF
:1003A0000C945D070C9432280C949A060C94C305A7
:1003B0000C946F050C9472060C9479300C946307BE
:1003C0000000090A02080B0C0D07060304010000D7
:1003D000000000000000000000000000000000001D
:1003E00000000000000000000000000011100F00DD
:1003F00000000000000000000000000000000000FD
:100400000000000000000102102020080810204019
:1004100010204080020102010804020101020408C8
:100420001020408080402010080402018004020156
:10043000804020100804020108040201010204089F
:1004400010204080010204081020408005050505A9
:10045000070508080808020202020A0A080804043C
:10046000040401010101010101010303030303036A
:100470000303040707070C0C0C0C0C0C0C0C0202F9
:10048000020206060606060606060B0B0B0B0B0BF6
:100490000B0B00002200250028002B002E0031004D
:1004A000340002010000050108010B0100002100D9
:1004B000240027002A002D00300033000101000035
:1004C000040107010A01024E414E494E495459495F
:1004D0004E46CDCCCC3D0AD7233C17B7D13877CC8C
:1004E0002B329595E6241FB14F0A000020410000F1
:1004F000C84200401C4620BCBE4CCA1B0E5AAEC5AA
:100500009D744619C6235533DB1B11241FBECFEF44
:10051000D1E2DEBFCDBF00E00CBF18E0A0E0B2E04A
:10052000ECEBF1E700E00BBF02C007900D92A630A4
:10053000B107D9F721E1A6E0B8E001C01D92A939C1
:10054000B207E1F712E0C4E8D2E000E006C021976C
:100550000109802FFE010E94CA36C138D10780E010
:100560000807A9F70E94CD2A0C94CC380C940000FF
:10057000DC01FB0112968C911297808313968C916B
:100580001397818314968C911497828315968C917E
:100590001597838316968C911697848317968C9162
:1005A0001797858318968C911897868319968C9146
:1005B000878388E090E00895FC01DB014C9150E0D6
:1005C00060E070E0428353836483758311968C915D
:1005D0001197582B428353836483758312968C91B1
:1005E0001297682B428353836483758313968C918F
:1005F0001397782B428353836483758314964C91AD
:10060000149750E060E070E04683578360877187FD
:1006100015968C911597582B468357836087718761
:1006200016968C911697682B46835783608771873F
:1006300017968C91782B468357836087718788E063
:1006400090E0089586E392E0089584E492E00895AE
:100650006F927F928F929F92AF92BF92CF92DF92D2
:10066000EF92FF920F931F93CF93DF93DC01FB0177
:10067000808190E013969C938E9312972181922B08
:1006800013969C938E931297028113812481358156
:100690005B0186E0A80EB11C68017901C6E0CC0EB2
:1006A000D11CE11CF11CA5014E1B5F0B60E070E04A
:1006B0004C155D056E057F0540F4E50149915E012D
:1006C000CE010297EC014883EECFEF01C00FD11F9E
:1006D0001D82CF01059615969C938E931497EF017A
:1006E000C00FD11F4E815F8168857985065F1F4FDE
:1006F0003F01600E711E6801012E000CEE08FF081C
:10070000C40ED51EE61EF71E43018E1A9F0AA12CA9
:10071000B12C8C149D04AE04BF0440F4E301299174
:100720003E01CE010297EC012883EECF400F511F0E
:100730009F01240F351FC9010197EC011882C801E0
:1007400001978E0F9F1F17969C938E931697E90122
:1007500088809980AA80BB804C5F5F4F3F01640E08
:10076000751E8A01052E000C220B330B080D191D76
:100770002A1D3B1D6301CE1ADF0AE12CF12CC016A5
:10078000D106E206F30640F4E30169913E01CE0191
:100790000297EC016883EECFCA01880D991D8F0185
:1007A000080F191F980121503109E9011882BA0177
:1007B00061507109E60FF71F1996FC93EE93189795
:1007C000F8012181428150E060E070E0BA015527D4
:1007D0004427522B2081422B2381722B1A964D9352
:1007E0005D936D937C931D970496DF91CF911F913C
:1007F0000F91FF90EF90DF90CF90BF90AF909F90C0
:100800008F907F906F90089585E692E008958EE72F
:1008100092E00895AF92BF92CF92DF92EF92FF9253
:100820000F931F93CF93DF935C01EB018881F50158
:10083000828389819A81AB81BC81FB0135966C01F1
:100840007D0125E0C20ED11CE11CF11C8F01061BAD
:10085000170B20E030E00C151D052E053F0538F480
:1008600041919F0122503109E9014883EFCFFB01FB
:10087000E80FF91F14826C5F7F4FF5017483638367
:100880000596DF91CF911F910F91FF90EF90DF9030
:10089000CF90BF90AF9008958FE992E0089582EBDA
:1008A00092E0089588EE95E0089583ED92E0089532
:1008B000DC01FB0112969C91129713968C91139771
:1008C0009083818314968C911497828315968C91D2
:1008D0001597838316969C91169717968C91179768
:1008E0009483858318969C91189719968C911997E3
:1008F000968387831A969C911A971B968C911B97C7
:10090000908781871C963C911C971D962C911D9772
:100910001E969C911E971F968C911F973287238756
:100920009487858750963C91509751962C9151977A
:1009300052969C91529753968C915397368727875E
:10094000908B818B54963C91549755962C9155974A
:1009500056969C91569757968C91328B238B948BFD
:10096000858B86E190E00895DC01FB01818190E0B8
:10097000982F88272081822B13969C938E93129711
:10098000828114968C931497838115968C93159776
:10099000858190E0982F88272481822B17969C933D
:1009A0008E931697878190E0982F88272681822B37
:1009B00019969C938E931897818590E0982F88279D
:1009C0002085822B1B969C938E931A978385448552
:1009D00050E060E070E0BA0155274427582B82852B
:1009E000482B8585782B1C964D935D936D937C9356
:1009F0001F978785408950E060E070E0BA01552775
:100A00004427582B8685482B8189782B50964D9307
:100A10005D936D937C9353978389448950E060E0A4
:100A200070E0BA0155274427582B8289482B8589C5
:100A3000782B54964D935D936D937C93579786E1F5
:100A400090E0089584EF92E0089580E193E00895A6
:100A5000DC01FB0112968C911297808313968C9186
:100A60001397818314968C911497828315968C9199
:100A70001597838316968C911697848317968C917D
:100A8000858386E090E00895FC01DB018C918283F0
:100A900011968C911197838312968C91129790E006
:100AA0009583848313962C911397922B958384833B
:100AB00014968C911497868315968C91878386E083
:100AC00090E0089581E393E008958CE493E0089525
:100AD000FC018281FB01808381E090E00895FB01AD
:100AE0002081FC01228381E090E008958DE693E06F
:100AF000089583E893E00895FF920F931F93CF9397
:100B0000DF93FC01DB0182818C93838111968C93AE
:100B10001197848112968C931297858113968C93EA
:100B20001397868114968C93149740E050E0BA0195
:100B300085E090E0038114812581368140175107BB
:100B400062077307D0F49C01255031098D01080F0D
:100B5000191FC185D285C20FD31FF880E801F88222
:100B6000C185D285C20FD31F2981E801298302964E
:100B70004F5F5F4F6F4F7F4FDDCFDF91CF911F9161
:100B80000F91FF90089584EA93E008958DEB93E030
:100B90000895DC01FB0112968C91129780831396C5
:100BA0008C911397818314968C9114978283159658
:100BB0008C911597838316968C911697848317963C
:100BC0008C911797858318968C9118978683199620
:100BD0008C91199787831A968C911A9780871B9608
:100BE0008C911B9781871C968C911C9782871D96F0
:100BF0008C9183878CE090E00895FC01DB018C915F
:100C000090E09383828311962C911197922B93837A
:100C1000828312968C91129790E095838483139629
:100C20002C911397922B9583848314968C9114970F
:100C300090E09783868315962C911597922B978336
:100C4000868316968C91169790E0918780871796E9
:100C50002C911797922B9187808718968C911897D3
:100C600090E09387828719962C911997922B9387FE
:100C700082871A968C911A9790E0958784871B96A5
:100C80002C91922B958784878CE090E008958EEDCF
:100C900093E0089588EF93E00895FC018281FB01C1
:100CA000808381E090E00895FB012081FC01228394
:100CB00081E090E0089580E896E0089589E194E06D
:100CC0000895FC018281FB01808381E090E008951A
:100CD000FB012081FC01228381E090E0089580E8FF
:100CE00096E0089589E194E00895FC018281FB017A
:100CF000808381E090E00895FB012081FC01228344
:100D000081E090E0089581E696E0089589E194E01D
:100D10000895FC018281FB01808381E090E00895C9
:100D2000FB012081FC01228381E090E0089581E6AF
:100D300096E0089589E194E008950F931F93CF936F
:100D4000DF938C01EB0102960E947C05C80FD91F2E
:100D5000F801258528830196DF91CF911F910F918E
:100D600008958FE396E008958AE394E0089502964B
:100D70000C947C058FE396E008958BE594E008954C
:100D80000F931F93CF93DF938C01EB0102960E9488
:100D9000C905C80FD91FF801208928830196DF9162
:100DA000CF911F910F9108950F931F93CF93DF93CE
:100DB0008C01EB0102960E94FD05C80FD91F288106
:100DC000F801208B0196DF91CF911F910F9108952B
:100DD0008FE196E008958CE794E0089502960C94D4
:100DE000C90502960C94FD058FE196E008958DE902
:100DF00094E00895DC01FB0112968C911297808398
:100E000013968C911397818314968C91828383E03F
:100E100090E00895FC01DB018C91828311968C9106
:100E20001197838312968C91848383E090E00895D8
:100E300084E096E008958EEB94E00895FC018281B1
:100E4000FB01808381E090E00895FB012081FC019B
:100E5000228381E090E0089584E096E008958FED8C
:100E600094E00895FC0182818093BD0D0895FC01FA
:100E7000EE57FB4F8081089583E090E0089584E071
:100E800096E008958EEB94E0089583E090E0089555
:100E90008FE396E008958AE394E0089583E090E07C
:100EA00008958FE196E008958CE794E0089583E03B
:100EB00090E0089581E696E0089589E194E0089530
:100EC00083E090E0089580E896E0089589E194E059
:100ED0000895DB012C91FC0120870184F285E02D2F
:100EE00006961994FC018385948508958DE693E018
:100EF000089583E893E008950F931F93CF93DF93B2
:100F00008C01EC012696CE010E944405D8011E9664
:100F1000ED91FC911F97CE01DF91CF911F910F9121
:100F20001994FC0180899189089581E393E00895E3
:100F30008CE493E008950F931F93CF93DF93EB011D
:100F40000091180210911902FC012481222311F052
:100F50000AE010E0FC012281209FC001219F900D3A
:100F6000112464E670E00E947536161617060CF020
:100F70008AC08091DE08813009F085C00617170706
:100F80002CF417FF04C000E010E001C08B0161E009
:100F900088E00E948A2828EE33E0029FC001039F68
:100FA000900D129F900D112420E12093810010924A
:100FB0008000092E000CAA0BBB0B63E0880F991F61
:100FC000AA1FBB1F6A95D1F70097F1E0AF07B105E3
:100FD00020F421E02093F10D42C0009728E0A20701
:100FE000B10558F422E02093F10D53E0B695A79592
:100FF000979587955A95D1F732C00097E0E4AE07F0
:10100000B10558F423E02093F10D46E0B695A7957D
:10101000979587954A95D1F722C00097A105F1E0F1
:10102000BF0740F424E02093F10D892F9A2FAB2FB6
:10103000BB2715C00097A10524E0B20758F425E0AE
:101040002093F10D2AE0B695A795979587952A9557
:10105000D1F705C085E08093F10D8FEF9FEF90935E
:10106000F30D8093F20D8091F20D9091F30D90931A
:101070008700809386008091F10D806180938100CC
:1010800081E08A8301C01A82DF91CF911F910F9175
:10109000089560E088E00E948A2880E180938100C2
:1010A00008958F929F92AF92BF92CF92DF92EF926C
:1010B000FF920F931F93CF93DF93EC018B018A81F3
:1010C000FB0180838B8181838C8182838D818383EB
:1010D000DB01179640E050E0BA01E4E0F0E0CA809E
:1010E000DB80EC80FD80CF0104964C155D056E051C
:1010F0007F05C0F42A853B85E20FF31F3497D0802B
:10110000F18032812381FD013397D0823196F082C4
:10111000319630832C93FC014F5F5F4F6F4F7F4FB1
:101120001496DDCFE00FF11F2C8520832D852183C0
:101130002E8522832F85238320E030E040E050E09D
:10114000BA01CC84DD84EE84FF84F801E80FF91F36
:1011500004964C155D056E057F05C0F4AC89BD890C
:10116000A20FB31FDC901196EC9011971296FC9091
:1011700012971396AC91D082E182F282A3834F5FE3
:101180005F4F6F4F7F4F2C5F3F4FDBCF2E89208308
:101190002F892183288D2283298D2383812C912CD3
:1011A00054014E895F89688D798D84169506A6064F
:1011B000B706A8F59401220F331FEC8DFD8DE20FC9
:1011C000F31FA081B181FD0101900020E9F7319763
:1011D0006F01CA1ADB0AF801E80FF91FA60160E0E7
:1011E00070E040835183628373837C01F4E0EF0EEF
:1011F000F11C8C8D9D8DFC01E20FF31F60817181CC
:10120000A601C8018E0D9F1D0E940D37C6018E0DCF
:101210009F1D2FEF821A920AA20AB20AC2CFDF9153
:10122000CF911F910F91FF90EF90DF90CF90BF90E3
:10123000AF909F908F900895CF93DF93DC01FB01D7
:1012400012968C911297808313968D919C9114978E
:10125000EC0109900020E9F72197C81BD90BAE01DA
:1012600060E070E0418352836383748313966D91D1
:101270007C911497AE01CF0105960E940D37CE01E7
:101280000596DF91CF910895CF92DF92EF92FF9272
:101290000F931F93CF93DF937C01EB01FC018281BD
:1012A000888383818983A481B581FD010190002019
:1012B000E9F731976F01CA1ADB0AC601A0E0B0E076
:1012C0008A839B83AC83BD83F70164817581A6010A
:1012D000CE0106960E940D37F701A681B781FD0168
:1012E00001900020E9F731978F010A1B1B0BFE01CB
:1012F000EC0DFD1DC801A0E0B0E086839783A087B8
:10130000B187FAE0CF0ED11CF70166817781A80181
:10131000CE018C0D9D1D0E940D370C0D1D1DF7017A
:10132000A085B185FD0101900020E9F731976F019B
:10133000CA1ADB0AFE01E00FF11FC601A0E0B0E00F
:1013400080839183A283B3830C5F1F4FF701608575
:101350007185A601CE01800F911F0E940D370C0DE3
:101360001D1DF7014285238594858585C00FD11FFA
:10137000488329839A838B83C8010496DF91CF9198
:101380001F910F91FF90EF90DF90CF900895CF9233
:10139000DF92EF92FF920F931F93CF93DF93EC01B5
:1013A0008B01FB0180818A8381819281C380D12C52
:1013B000E12CF12C7601DD24CC24D92AC82A8481A1
:1013C000F82A8B819C81AD81BE818C159D05AE056F
:1013D000BF0548F4B601660F771F89859A850E947C
:1013E00013279A878987CB82DC82ED82FE8240E0D8
:1013F00050E0BA0185E090E0DE011796CB80DC80FA
:10140000ED80FE804C155D056E057F05E8F4F80162
:10141000E80FF91F208130E038872F83E1813E2BD0
:1014200038872F8302969A01220F331FE985FA85A8
:10143000E20FF31F2D913C911197318320834F5F71
:101440005F4F6F4F7F4FDACFDF91CF911F910F9199
:10145000FF90EF90DF90CF9008950F931F93CF935D
:10146000DF938C01EB0102960E94C709C80FD91FB8
:101470002881F80125870196DF91CF911F910F9167
:10148000089502960C94C7094F925F926F927F92D3
:101490008F929F92AF92BF92CF92DF92EF92FF9284
:1014A0000F931F93CF93DF93EC015B01DB018C91D2
:1014B00011969C9111971296CC901297D12CE12CF9
:1014C000F12C7601DD24CC24D92AC82A13968C91DC
:1014D000F82A8A819B81AC81BD818C159D05AE0562
:1014E000BF0558F4B601660F771F660F771F8A8510
:1014F0009B850E9413279B878A87CA82DB82EC82A6
:10150000FD829501295F3F4FC12CD12C7601E4E08B
:10151000F0E0AE014A5F5F4F8A819B81AC81BD8163
:101520008F010C5F1F4FC816D906EA06FB0680F52F
:10153000F901808190E0A0E0B0E0B82FAA279927B8
:10154000882733976081862B31966081962B319660
:101550006081A62B8E839F83A887B987F801C80175
:101560000897AA85BB858A0F9B1FDA014D905D9075
:101570006D907C90DC014D925D926D927C92139700
:10158000BFEFCB1ADB0AEB0AFB0A2C5F3F4FC4CF3D
:10159000EA0DFB1D80819181C280D12CE12CF12CC0
:1015A0007601DD24CC24D92AC82A8381F82A8C85A7
:1015B0009D85AE85BF858C159D05AE05BF0558F48C
:1015C000B601660F771F660F771F8C899D890E9471
:1015D00013279D8B8C8BCC86DD86EE86FF8620E0E4
:1015E00030E0C12CD12C7601AE01405F5F4F8C857D
:1015F0009D85AE85BF85F501E00FF11F0C5F1F4F84
:10160000C816D906EA06FB0640F56181828190E0A2
:10161000A0E0B0E0DC0199278827962B6081862B1B
:101620006381B62B888B998BAA8BBB8BEC89FD8948
:10163000BF01620F731FFA0180819181A281B38182
:10164000FB0180839183A283B383FFEFCF1ADF0A6C
:10165000EF0AFF0A2C5F3F4FCACF80819181C28081
:10166000D12CE12CF12C7601DD24CC24D92AC82AF6
:101670008381F82A8E899F89A88DB98D8C159D0547
:10168000AE05BF0548F4B601660F771F8C8D9D8DA2
:101690000E9413279D8F8C8FCE8ADF8AE88EF98E69
:1016A00040E050E0BA014E018AE1880E911C8E891B
:1016B0009F89A88DB98D481759076A077B0708F0DD
:1016C00045C0D501A00FB11FCD90DD90ED90FC90ED
:1016D000C8010496D501A80FB91F2C01092E000CD2
:1016E000660877084C0C5D1C6E1C7F1C9D012A1936
:1016F0003B09890120E030E0041515052605370572
:1017000038F41D919D0122503109F9011083EECF6B
:101710008C010C0D1D1DD501A00FB11F11971C923E
:1017200001978A0D9B1D9B8F8A8FCA01880F991F75
:10173000AC8DBD8DA80FB91FF401808191818D936F
:101740009C934F5F5F4F6F4F7F4FB1CFC801DF91C9
:10175000CF911F910F91FF90EF90DF90CF90BF90AE
:10176000AF909F908F907F906F905F904F90089573
:1017700040E050E061E08DEE9DE00E94C12061E01C
:1017800070E080E090E00E94352940E050E062E0A7
:101790008DEE9DE00E94C12061E070E080E090E06D
:1017A0000E94352940E050E063E08DEE9DE00E940C
:1017B000C12061E070E080E090E00C943529CF9387
:1017C000DF933091BD0DFC012781332319F02111E6
:1017D00003C038C0211136C0EC010E940429609377
:1017E000BE0D7093BF0D8093C00D9093C10D8C8181
:1017F0009D812091DD0821110EC028E631E0281BD3
:10180000390B4B81042E000C550B6A818DEE9DE047
:101810000E94E72004C08DEE9DE00E9406218E818B
:10182000882331F061E084E00E948A2861E005C0ED
:1018300060E084E00E948A2860E087E0DF91CF9139
:101840000C948A28DF91CF910895CF93DF93AB0159
:10185000EC01AE81BF81ED91FC9111976C817D818E
:101860000190F081E02DCD01DF91CF9119940F937C
:101870001F93CF93DF93EC01FB01808188878181E7
:10188000898782818A878E01055F1F4FE88DF98DD8
:10189000B801CE0106961995B801CE010E96DF91DA
:1018A000CF911F910F910C94250CEF92FF920F9303
:1018B0001F93CF93DF93EC017C0186E0E80EF11CCF
:1018C000C7010E942D0A8E010C5E1F4FEBA5FCA5DF
:1018D000B801C7011995B801CE018196DF91CF916A
:1018E0001F910F91FF90EF900C94250CEF92FF92B7
:1018F0000F931F93CF93DF93EC017C0186E0E80EFA
:10190000F11CC7010E94D4068E01095E1F4FE9A990
:10191000FAA9B801C7011995B801CE018796DF91E0
:10192000CF911F910F91FF90EF900C94250C0F9386
:101930001F93CF93DF93EC01FB01808188878E0199
:10194000075F1F4FEE89FF89B801CE0106961995F2
:10195000B801CE010C96DF91CF911F910F910C949D
:10196000250C0F931F93CF93DF93EC01FB01808134
:1019700088878E01075F1F4FEE89FF89B801CE016E
:1019800006961995B801CE010C96DF91CF911F9163
:101990000F910C94250C23EE38E041EE58E06FEDEA
:1019A00078E08DEE9DE00C94B62161E084E00E9429
:1019B0004E2861E087E00E944E2861E085E00E94A9
:1019C0004E2861E086E00E944E2860E089E30E9494
:1019D0004E2860E087E30E944E2860E086E30E9484
:1019E0004E2860E088E30E944E2860E084E00E9478
:1019F0008A2860E087E00E948A2860E070E085E045
:101A00000E94E22960E070E086E00C94E22960E345
:101A10008DEE9DE00E9444206AE070E080E090E05E
:101A20000E9435298DEE9DE00E9406216AE070E05B
:101A300080E090E00E9435292AEE3DE04BEE5DE02B
:101A40006CEE7DE08DEE9DE00E942A2265E070E064
:101A500080E090E00E9435298DEE9DE00E944F21AC
:101A60008093E90D65E070E080E090E00E94352908
:101A70008DEE9DE00E94A7219093E80D8093E70DE5
:101A800065E070E080E090E00E9435298DEE9DE0F9
:101A90000E94AC219093E60D8093E50D65E070E027
:101AA00080E090E00E9435298DEE9DE00E94B121FA
:101AB0009093E40D8093E30D65E070E080E090E0AA
:101AC0000E943529209128023091290240912A0252
:101AD00050912B0260912C0270912D028DEE9DE0B1
:101AE0000E9481206FE070E080E090E00E94352944
:101AF000209122023091230240912402509125022C
:101B000060912602709127028DEE9DE00E94A12037
:101B10006FE070E080E090E00E94352968EE73E0AD
:101B200080E090E00C94352940912D0260E070E057
:101B30008EEE9DE00E940E2040912C0261E070E04C
:101B40008EEE9DE00E940E2040912B0262E070E03C
:101B50008EEE9DE00E940E2040912A0263E070E02C
:101B60008EEE9DE00E940E204091290264E070E01C
:101B70008EEE9DE00E940E204091280265E070E00C
:101B80008EEE9DE00E940E204091270266E070E0FC
:101B90008EEE9DE00E940E204091260267E070E0EC
:101BA0008EEE9DE00E940E204091250268E070E0DC
:101BB0008EEE9DE00E940E204091240269E070E0CC
:101BC0008EEE9DE00E940E20409123026AE070E0BC
:101BD0008EEE9DE00E940E20409122026BE070E0AC
:101BE0008EEE9DE00C940E20CF93DF93FC01EB0171
:101BF0008089882309F464C084819581009721F04D
:101C000090932D0280932C0286819781009721F07A
:101C100090932B0280932A0280859185009721F072
:101C2000909329028093280282859385009721F062
:101C3000909327028093260284859585009721F052
:101C4000909325028093240286859785009721F042
:101C5000909323028093220220912802309129023E
:101C600040912A0250912B0260912C0270912D021A
:101C70008DEE9DE00E9481206FE070E080E090E0BA
:101C80000E943529209122023091230240912402A2
:101C90005091250260912602709127028DEE9DE001
:101CA0000E94A1206FE070E080E090E00E94352962
:101CB0000E94940D6AE070E080E090E00E94352977
:101CC00080912C0290912D029D838C8380912A0219
:101CD00090912B029F838E838091280290912902FC
:101CE0009987888780912602909127029B878A870F
:101CF00080912402909125029D878C8780912202F9
:101D0000909123029F878E87DF91CF910895CF9383
:101D100060E070E08EEE9DE00E940B20C82F61E035
:101D200070E08EEE9DE00E940B202C2F30E0322FD1
:101D30002227282B30932D0220932C0262E070E0A2
:101D40008EEE9DE00E940B20C82F63E070E08EEEC7
:101D50009DE00E940B202C2F30E0322F2227282BD1
:101D600030932B0220932A0264E070E08EEE9DE017
:101D70000E940B20C82F65E070E08EEE9DE00E946F
:101D80000B202C2F30E0322F2227282B30932902D2
:101D90002093280266E070E08EEE9DE00E940B200A
:101DA000C82F67E070E08EEE9DE00E940B202C2F84
:101DB00030E0322F2227282B30932702209326024F
:101DC00068E070E08EEE9DE00E940B20C82F69E075
:101DD00070E08EEE9DE00E940B202C2F30E0322F21
:101DE0002227282B30932502209324026AE070E0FA
:101DF0008EEE9DE00E940B20C82F6BE070E08EEE0F
:101E00009DE00E940B202C2F30E0322F2227282B20
:101E10003093230220932202CF9108950F931F93B2
:101E2000CF93DF93409100026CE070E08EEE9DE076
:101E30000E940E2000E010E0C0E0D0E08091BA0DDA
:101E40009091BB0D0817190700F5E091B60DF091C0
:101E5000B70DEC0FFD1F4181BE01635F7F4F8EEE1A
:101E60009DE00E940E20E091B60DF091B70DEC0FB1
:101E7000FD1FBE01625F7F4F40818EEE9DE00E949C
:101E80000E2022960F5F1F4FD9CFDF91CF911F9168
:101E90000F91089540E050E061E08DEE9DE00E94DA
:101EA000C12061E070E080E090E00E94352940E0D0
:101EB00050E062E08DEE9DE00E94C12061E070E0A4
:101EC00080E090E00E94352940E050E063E08DEE34
:101ED0009DE00E94C12061E070E080E090E00C9401
:101EE000352969ED78E08FEC98E00E94250CE9ED4A
:101EF000F8E0868197819093E20D8093E10D8085D3
:101F000091859093E00D8093DF0D8285938590936A
:101F1000DE0D8093DD0D0895CF92DF92EF92FF9258
:101F20000F931F93CF93DF938C01E091B60DF09147
:101F3000B70D2091BA0D3091BB0D80E090E041913A
:101F400051914017510710F09C0105C0821793076B
:101F500011F00196F4CF21503109E901CC0FDD1FBA
:101F6000CC0FDD1FE091A80DF091A90DEC0FFD1F26
:101F700060817181828193810E940B35072E000C54
:101F8000880B990B0E9443356B017C012091A10DB8
:101F90003091A20DC20FD31FB801110F880B990BFE
:101FA0000E944335288139814A815B810E94F8353E
:101FB0009B01AC01C701B6010E9428340E940B3579
:101FC000CB01DF91CF911F910F91FF90EF90DF90A8
:101FD000CF900895FC01EC5EFB4F20E030E0419192
:101FE0005191452B91F4F901E65FFD4FEE0FFF1F74
:101FF000E80FF91F7183608323583F4FFB0135833E
:1020000024839783868381E008952F5F3F4F293192
:10201000310529F780E00895CF92DF92EF92FF9289
:102020000F931F93CF93DF93EC018C819D818C01E3
:102030000F5F1F4F8017910708F043C07B012A8173
:102040003B812017310730F509962817390710F51D
:10205000C880D9809B838A83880F991F0E94C92AD0
:1020600088839983D601FC0120E030E08C819D813A
:102070002817390760F4309729F08D919C911197BA
:10208000918380832F5F3F4F12963296EFCFC60128
:102090000E94CB2A8C819D819C01220F331F8017C7
:1020A000910790F4E881F981E20FF31F309729F04E
:1020B000D7014D915C915183408301962E5F3F4F34
:1020C000EECF0817190710F41D830C83DF91CF9111
:1020D0001F910F91FF90EF90DF90CF9008958F9216
:1020E0009F92AF92BF92CF92DF92EF92FF920F93A7
:1020F0001F93CF93DF93EC018C819D818C010F5F47
:102100001F4F8017910708F04FC07B012A813B8148
:102110002017310760F509962817390740F5C88060
:10212000D9809B838A83880F991F880F991F0E94EB
:10213000C92A888399834C815D81D601FC0120E006
:1021400030E02417350781F0309749F08D909D904D
:10215000AD90BC90139780829182A282B3822F5F50
:102160003F4F14963496EDCFC6010E94CB2A8C8146
:102170009D819C01220F331F220F331F801791076F
:10218000B0F4E881F981E20FF31F309749F0D701ED
:102190004D915D916D917C914083518362837383F6
:1021A00001962C5F3F4FEACF0817190710F41D83E3
:1021B0000C83DF91CF911F910F91FF90EF90DF90F3
:1021C000CF90BF90AF909F908F9008954F925F9265
:1021D0006F927F928F929F92AF92BF92CF92DF9237
:1021E000EF92FF920F931F93CF93DF9300D01F9234
:1021F000CDB7DEB76CE070E08EEE9DE00E940B2064
:1022000090E090930102809300028091BA0D90912A
:10221000BB0D892B21F01092BB0D1092BA0D80914D
:10222000B30D9091B40D892B21F01092B40D109242
:10223000B30D00E010E01A830983BE016F5F7F4F8A
:102240008FEA9DE00E940C108091000290910102A3
:10225000080F191F093681E018076CF3C12CD12C27
:10226000E12CF12C8091B30D9091B40DC816D906D4
:1022700020F5B701635F7F4F8EEE9DE00E940B203B
:10228000182FB701625F7F4F8EEE9DE00E940B20FA
:10229000212F30E0322F2227282B3A832983BE01B9
:1022A0006F5F7F4F86EB9DE00E940C1082E0E80E8E
:1022B000F11C8FEFC81AD80AD5CF8091AC0D909140
:1022C000AD0D892B21F01092AD0D1092AC0D8091C7
:1022D000A50D9091A60D892B21F01092A60D1092BC
:1022E000A50DE12CF12CC12CD12C8091B30D909136
:1022F000B40D0197C816D90608F085C08FEFC81A2B
:10230000D80A8091AF0D9091B00D8601000F111F7A
:102310006090B60D7090B70DFC01E00FF11FDC016D
:10232000AE0DBF1D608171818D919C91681B790BF1
:1023300080E090E00E9441354B015C01D301A00F89
:10234000B11FF301EE0DFF1D8D919C912081318114
:10235000821B930BBC0180E090E00E9441359B0101
:10236000AC01C501B4010E94993469837A838B83DF
:102370009C83BE016F5F7F4F81EA9DE00E946F10DA
:10238000E091AF0DF091B00DE00FF11F6081718110
:1023900080E090E00E9441354B015C01C701880F4D
:1023A000991FE091A10DF091A20DE80FF91F408057
:1023B0005180628073808091B60D9091B70DFC01C1
:1023C000E00FF11F6081718180E090E00E94413553
:1023D0009B01AC01C301B2010E94F8359B01AC0125
:1023E000C501B4010E94273469837A838B839C835F
:1023F000BE016F5F7F4F88EA9DE00E946F1082E010
:10240000E80EF11C72CF0F900F900F900F90DF919C
:10241000CF911F910F91FF90EF90DF90CF90BF90E1
:10242000AF909F908F907F906F905F904F900895A6
:102430004F925F926F927F928F929F92AF92BF92D4
:10244000CF92DF92EF92FF920F931F93CF93DF9380
:1024500000D01F92CDB7DEB78091BA0D9091BB0D21
:10246000892B21F01092BB0D1092BA0D8091B30D03
:102470009091B40D892B21F01092B40D1092B30DF0
:1024800000E010E01A830983BE016F5F7F4F8FEA7F
:102490009DE00E940C101A830983BE016F5F7F4F7D
:1024A00086EB9DE00E940C10809100029091010249
:1024B000080F191F093681E0180724F38091AC0D2D
:1024C0009091AD0D892B21F01092AD0D1092AC0DB5
:1024D0008091A50D9091A60D892B21F01092A60D4B
:1024E0001092A50DE12CF12CC12CD12C8091B30DB3
:1024F0009091B40D0197C816D90608F085C08FEFEA
:10250000C81AD80A8091AF0D9091B00D8601000FC6
:10251000111F6090B60D7090B70DFC01E00FF11F18
:10252000DC01AE0DBF1D608171818D919C91681B96
:10253000790B80E090E00E9441354B015C01D301B2
:10254000A00FB11FF301EE0DFF1D8D919C91208115
:102550003181821B930BBC0180E090E00E944135E9
:102560009B01AC01C501B4010E94993469837A834F
:102570008B839C83BE016F5F7F4F81EA9DE00E9449
:102580006F10E091AF0DF091B00DE00FF11F608181
:10259000718180E090E00E9441354B015C01C701F0
:1025A000880F991FE091A10DF091A20DE80FF91F7E
:1025B00040805180628073808091B60D9091B70DFC
:1025C000FC01E00FF11F6081718180E090E00E94CA
:1025D00041359B01AC01C301B2010E94F8359B015A
:1025E000AC01C501B4010E94273469837A838B83CF
:1025F0009C83BE016F5F7F4F88EA9DE00E946F1051
:1026000082E0E80EF11C72CF60910002709101022D
:1026100088E691E00E947536CB01880F991F0E94D1
:10262000E6259093A00D80939F0D0F900F900F9033
:102630000F90DF91CF911F910F91FF90EF90DF905E
:10264000CF90BF90AF909F908F907F906F905F9052
:102650004F9008954F925F926F927F928F929F92C8
:10266000AF92BF92CF92DF92EF92FF920F931F93A0
:10267000CF93DF9300D01F92CDB7DEB78091AC0D22
:102680009091AD0D892B21F01092AD0D1092AC0DF3
:102690008091A50D9091A60D892B21F01092A60D89
:1026A0001092A50DE12CF12CC12CD12C8091B30DF1
:1026B0009091B40D0197C816D90608F085C08FEF28
:1026C000C81AD80A8091AF0D9091B00D8601000F05
:1026D000111F6090B60D7090B70DFC01E00FF11F57
:1026E000DC01AE0DBF1D608171818D919C91681BD5
:1026F000790B80E090E00E9441354B015C01D301F1
:10270000A00FB11FF301EE0DFF1D8D919C91208153
:102710003181821B930BBC0180E090E00E94413527
:102720009B01AC01C501B4010E94993469837A838D
:102730008B839C83BE016F5F7F4F81EA9DE00E9487
:102740006F10E091AF0DF091B00DE00FF11F6081BF
:10275000718180E090E00E9441354B015C01C7012E
:10276000880F991FE091A10DF091A20DE80FF91FBC
:1027700040805180628073808091B60D9091B70D3A
:10278000FC01E00FF11F6081718180E090E00E9408
:1027900041359B01AC01C301B2010E94F8359B0198
:1027A000AC01C501B4010E94273469837A838B830D
:1027B0009C83BE016F5F7F4F88EA9DE00E946F108F
:1027C00082E0E80EF11C72CF0F900F900F900F90E7
:1027D000DF91CF911F910F91FF90EF90DF90CF90FD
:1027E000BF90AF909F908F907F906F905F904F9031
:1027F00008950F931F93CF93DF93CDB7DEB72A973A
:102800000FB6F894DEBF0FBECDBF8C0188EA96E00C
:102810009A8389831B821C821D821E821F821886D6
:1028200019861A86D801ED91FC910190F081E02D76
:10283000AE014F5F5F4F6AE070E0C80119950E94DA
:102840000429F80160877187828793872A960FB6DB
:10285000F894DEBF0FBECDBFDF91CF911F910F91D6
:1028600008954F925F926F927F92AF92BF92CF92F4
:10287000DF92EF92FF920F931F93CF93DF93CDB729
:10288000DEB72E970FB6F894DEBF0FBECDBF8C011A
:1028900084EB96E09A8389831C821B8288E395E00F
:1028A0009E838D8398878F839A8789871B861C8652
:1028B0001D861E8668018CEEC81A8BEFD80A780137
:1028C000AAEBEA1AABEFFA0A412C92E0592E612CDE
:1028D000712CD601ED91FC913097B9F184819581ED
:1028E0009C838B83808191819E838D838281938160
:1028F000DC01ED91FC910480F581E02D199598871C
:102900008F83D601ED91FC9182819381DC01ED9161
:10291000FC910680F781E02D19959A8789874B866F
:102920005C866D867E86F80180819181F601A081AA
:10293000B18118966D917C911997DC01ED91FC9114
:10294000AE014F5F5F4FC8011995B2E0CB0ED11CAD
:10295000CE14DF0409F0BDCF6801E8E8CE1AEBEF32
:10296000DE0A412C82E0582E612C712CF701A081E7
:10297000B1811097E1F112968D919C9113979C83F0
:102980008B8314968D919C9115979E838D83ED91E9
:10299000FC9111970480F581E02DCD011995988760
:1029A0008F83D7018D919C91DC01ED91FC91068084
:1029B000F781E02D19959A8789874B865C866D860D
:1029C0007E86D801ED91FC91A080B180F7018081D5
:1029D0009181DC01ED91FC910280F381E02D19954C
:1029E000AE014F5F5F4FBC01C801F5011995F2E0E0
:1029F000EF0EF11CEC14FD0409F0B8CFF801EE570E
:102A0000FB4F81E080832E960FB6F894DEBF0FBE99
:102A1000CDBFDF91CF911F910F91FF90EF90DF908D
:102A2000CF90BF90AF907F906F905F904F90089540
:102A30008F929F92AF92BF92CF92DF92EF92FF92CE
:102A40000F931F93CF93DF93CDB7DEB72A970FB6BF
:102A5000F894DEBF0FBECDBF8C015B0188EA96E023
:102A60009A8389831B821C821D821E821F82188684
:102A700019861A860E940429F801C084D184E28450
:102A8000F3849B01AC012C193D094E095F096901D2
:102A90007A01B501CE0101960E94DC0288EE882EF3
:102AA00083E0982EA12CB12CC701B601A501940199
:102AB0000E948936CB80DC80ED80FE80C20ED31E62
:102AC000E41EF51ECB82DC82ED82FE829B01AC010E
:102AD00060E472E48FE090E00E946536CF80D88495
:102AE000E984FA84DC01CB018C0D9D1DAE1DBF1D58
:102AF0008F839887A987BA870E940429CB80DC80BE
:102B0000ED80FE8031E0C31AD108E108F108A5018B
:102B100094010E948936C21AD30AE40AF50AF80120
:102B2000C486D586E686F786CF80D884E984FA8481
:102B3000F6E3DF1AF5E6EF0AF4ECFF0A9B01AC01BD
:102B400060E472E48FE090E00E946536C61AD70A0E
:102B5000E80AF90AF801C08AD18AE28AF38AB80140
:102B6000605F7F4FC8010C960E9480220E9404295A
:102B7000F801E957FB4F60837183828393832A9620
:102B80000FB6F894DEBF0FBECDBFDF91CF911F917E
:102B90000F91FF90EF90DF90CF90BF90AF909F90FC
:102BA0008F9008952F923F924F925F926F927F92F3
:102BB0008F929F92AF92BF92CF92DF92EF92FF924D
:102BC0000F931F93CF93DF93CDB7DEB760970FB608
:102BD000F894DEBF0FBECDBF988B8F870E9404296B
:102BE0004B015C012F85388929573B4F3E832D834C
:102BF000F90180819181A281B381A5019401281BF3
:102C0000390B4A0B5B0BDA01C901893F9A42A105D6
:102C1000B10528F0EF85F889EE57FB4F10820F853C
:102C2000188908581B4FD8018D919C91892B81F0F0
:102C3000EF85F889E557FB4F80819181A281B381AF
:102C400088159905AA05BB0518F4F80111821082B0
:102C50006F847888F0E86F1AFBEF7F0A2F85388938
:102C600024583B4F3A832983CF84D88834E1C30E5C
:102C7000D11C4F8558894E575B4F58874F832F85FE
:102C8000388920573B4F3A8729874F8558894157C4
:102C90005B4F5C874B87EF84F88856E8E51A5BEF5B
:102CA000F50A2F85388922583B4F3C832B834F856B
:102CB000588945575B4F5E874D871401250154E1C4
:102CC000250E311C411C511CAF85B88912968D917F
:102CD0009C911397DC01ED91FC910680F781E02D2A
:102CE00019959C0197FD22C1F30180819181820F8A
:102CF000931F91838083D8014D915C91473051059A
:102D0000D1F4EB81FC8180819181AC014F5F5F4FF9
:102D100051834083EF85F889E80FF91F248BD70191
:102D20008D919C91119701978D939C93892B61F6BE
:102D300088E090E06BC04115510521F52F3F31052A
:102D400061F481E090E0D8018D939C93ED85FE8540
:102D50002082318242825382B7CF0E940429DC0153
:102D6000CB0188199909AA09BB090697A105B105E4
:102D700008F4AACFEF85F889EE57FB4F10828EEF4B
:102D80009FEFFDC04130510599F42E3F310519F4F4
:102D900082E090E02BC0F80111821082AF81B885EB
:102DA0008C91811191CF8F8598890E94F9138CCFD6
:102DB0004230510569F4F70131832083AB81BC8136
:102DC0001D921C9283E090E0F8019183808332C0D1
:102DD0004330510579F4322F2227F7018081918108
:102DE000280F391F3183208384E090E0D8018D9330
:102DF0009C936ACF4430510589F460E071E00E94F1
:102E000075368F3F910531F485E090E0F8019183AC
:102E100080835ACFD8011D921C9256CF4530510560
:102E200069F4E981FA8131832083E6E0F0E0D8019A
:102E3000ED93FC93D3012D933C9346CF463051053F
:102E400099F4322F2227E981FA8180819181280F1C
:102E5000391F31832083E7E0F0E0D801ED93FC9344
:102E6000D7018D919C9162CF4830510509F02CCF4C
:102E7000F8011182108260E071E00E9475368F3F88
:102E8000910509F021CFA981BA818D919C9100977C
:102E9000C9F48F8598890E94F9138F8598890E94BB
:102EA0003114EF85F889ED57FB4F80829182A28221
:102EB000B382ED81FE8180829182A282B3828FEF04
:102EC0009FEF5DC08A30910531F4B6018F859889F6
:102ED0000E941815F9CE8630910551F4B601898506
:102EE0009A850E94440A81E0AB85BC858C93ECCE28
:102EF0008B30910521F4EF81F8851082E5CEFC013D
:102F0000E154FE4FEE0FFF1F2F853889E20FF31FAC
:102F100080819181009709F4D7CEDC01ED91FC917D
:102F20000190F081E02DB6011995CECEEF85F8899C
:102F3000EE57FB4F8081882301F10F8518890D57CB
:102F40001B4FF80180819181A281B381A501940179
:102F5000281B390B4A0B5B0BDA01C901853C9940F0
:102F6000A105B10550F08F8598890E94F913D80109
:102F70008D929D92AD92BC92139780E090E0609606
:102F80000FB6F894DEBF0FBECDBFDF91CF911F917A
:102F90000F91FF90EF90DF90CF90BF90AF909F90F8
:102FA0008F907F906F905F904F903F902F900895FB
:102FB000CF93DF9300D01F921F92CDB7DEB720ECE6
:102FC00036E03A8329836B835D834C83DC01ED918A
:102FD000FC910190F081E02DAE014F5F5F4F67E003
:102FE00070E019950F900F900F900F900F90DF9158
:102FF000CF910895AF92BF92CF92DF92EF92FF925E
:103000000F931F93CF93DF93EC016B01643671052F
:103010003CF0FC01EE57FB4F8081882309F461C02E
:10302000DA01ED91FC910190F081E02DBE01655E29
:103030007D4FCA0119958C017E01BCEEEB1ABDEFE4
:10304000FB0A2FEFF70120832EEF31962083319674
:103050008083319690833196890F80958083319655
:10306000C082DE01A65EBD4FDC9245E050E020E06C
:1030700030E0C80107964817590730F46191260FD0
:10308000311D4F5F5F4FF7CF085F1F4F8C0F9D1FA4
:10309000FC01EC5EFD4F209520830130F2E01F071C
:1030A000A9F0680157018A819B81D5016D915D016D
:1030B000DC01ED91FC910190F081E02D1995C501A5
:1030C0008E199F098017910774F30DC040E055E0F9
:1030D00063E0CE010E94D817CC24CA94DD24DA9490
:1030E00002C0C12CD12CC601DF91CF911F910F914D
:1030F000FF90EF90DF90CF90BF90AF900895CF9268
:10310000DF92EF92FF920F931F93CF93DF931F9263
:103110001F92CDB7DEB76C018B01FC01858588233A
:1031200009F46EC02481222309F46AC030E088E6E5
:1031300091E0B9010E947536AB01770F660B770BF2
:1031400085819681A781B0850197A109B1094817AA
:1031500059076A077B0709F04CC03093010220939E
:1031600000028091BA0D9091BB0D892B21F0109235
:10317000BB0D1092BA0D8091B30D9091B40D892BB7
:1031800021F01092B40D1092B30DE12CF12CFA82C3
:10319000E982BE016F5F7F4F8FEA9DE00E940C10B5
:1031A0008091000290910102E80EF91EF9E6EF16F7
:1031B000F1E0FF0664F3E12CF12C8091B30D9091C6
:1031C000B40DE816F90680F4C701880F991FF601BF
:1031D00063857485680F791F86EB9DE00E940C1053
:1031E000FFEFEF1AFF0AE9CF0E942A130E940E0F89
:1031F00007C049E355E063E081EF98E00E94D817EB
:1032000080910002F801848380919F0D9091A00D20
:103210000E947B26609100027091010288E691E095
:103220000E947536CB01880F991F0E94E625382F22
:10323000292F80939F0D9093A00D4091BA0D50912E
:10324000BB0DA091B60DB091B70DE82FF92F80E01E
:1032500090E08417950731F06D917D9161937193A2
:103260000196F7CFF80133872487A0E0B0E085838B
:103270009683A783B0870F900F90DF91CF911F9116
:103280000F91FF90EF90DF90CF900895CF93DF9351
:103290001092B70D1092B60DC8E0D0E0D093B90DE2
:1032A000C093B80D1092BB0D1092BA0D80E190E062
:1032B0000E94C92A9093B70D8093B60D1092B00D5D
:1032C0001092AF0DD093B20DC093B10D1092B40D0A
:1032D0001092B30D80E190E00E94C92A9093B00D46
:1032E0008093AF0D1092A90D1092A80DD093AB0D45
:1032F000C093AA0D1092AD0D1092AC0D80E290E03B
:103300000E94C92A9093A90D8093A80D1092A20D36
:103310001092A10DD093A40DC093A30D1092A60DF1
:103320001092A50D80E290E00E94C92A9093A20D10
:103330008093A10D8CE897E09093F2088093F108B8
:1033400081E59FE09093F4088093F30880E091EE8C
:10335000A0E0B0E08093F5089093F608A093F708FA
:10336000B093F8081092730D8CEC96E09093820D58
:103370008093810D1092830D1092840D1092850D13
:103380001092860D10928C0D10928B0D10928D0D57
:1033900010928E0D10928F0D1092900D1092960D2E
:1033A0001092950D1092970D1092980D1092990D04
:1033B00010929A0D10929E0D10929D0DE5E0FDE089
:1033C000119211928DE0E733F807D1F7E7E3FDE0C2
:1033D000119211928DE0E936F807D1F7E5E0F9E0B6
:1033E00011928BE0E530F807D9F7E5E0FBE01192A8
:1033F0008DE0E530F807D9F788ED96E09093DA088C
:103400008093D9081092DC081092DB081092DD0836
:103410001092DE081092E0081092DF081092E20885
:103420001092E1081092E4081092E3081092E50867
:103430001092E6081092E7081092E8081092E90846
:103440001092EA081092EB081092EC081092ED0826
:103450001092EE081092EF081092F00883E093E0CB
:103460009093D0088093CF0889ED98E09093D2088C
:103470008093D1081092D8081092D70886E997E077
:103480009093BE088093BD0884EE96E09093C408A4
:103490008093C3081092C5081092C6081092C808FD
:1034A0001092C7081092C9081092CA088FED9BE0CD
:1034B0009093CC088093CB0881E090E09093CE0865
:1034C0008093CD0820E433E03093C2082093C108F4
:1034D00022EA37E03093B1082093B00820EF36E0BD
:1034E0003093B7082093B6081092B80822E337E06B
:1034F0003093BA082093B9089093BC088093BB0816
:103500008CE793E09093B5088093B4088EEA97E037
:10351000909399088093980884E197E090939F088E
:1035200080939E081092A00880E297E09093A208F2
:103530008093A1081092A30829E635E03093A508EE
:103540002093A40881EA98E09093A7088093A608A6
:1035500082E090E09093AD088093AC0830939D0892
:1035600020939C0828EB3BE03093AF082093AE08F3
:103570002AEB37E030938108209380082CE237E073
:1035800030938708209386081092880828E337E054
:1035900030938A082093890810928B082EE735E033
:1035A00030938D0820938C0849E858E050938F0899
:1035B00040938E08909395088093940830938508E3
:1035C0002093840825EF3FE13093970820939608D5
:1035D00026EC37E030934E0820934D082CE537E079
:1035E000309354082093530828E037E0309356086E
:1035F00020935508109258081092570810925A08B4
:103600001092590810925C0810925B0810925E08A4
:1036100010925D081092600810925F081092620884
:10362000109261081092630848E657E050936508CD
:1036300040936408309367082093660810926908E5
:103640001092680810926B0810926A0810926D0828
:1036500010926C0810926F0810926E081092710808
:103660001092700810927308109272082EE835E0DC
:10367000309375082093740844E658E05093770817
:103680004093760890937D0880937C08309352088D
:103690002093510824EF3DE030937F0820937E086B
:1036A00022ED37E0309321082093200824E437E00E
:1036B00030932708209326082CEF36E03093290812
:1036C0002093280810922A0810922B0810922C0898
:1036D00010922D0810922E08109232081092310884
:1036E0001092330840E557E0509335084093340872
:1036F0003093370820933608109238081092390812
:1037000010923A0810923B0810923C081092400820
:1037100010923F082FE935E030934208209341088A
:1037200044E358E0509344084093430890934A0878
:103730008093490830932508209324082FE738E127
:1037400030934C0820934B082EED37E03093070858
:103750002093060824E737E030930D0820930C08E7
:1037600010920E0810920F081092100820E837E00F
:1037700030931208209311081092130822EB35E0C1
:10378000309315082093140841E158E0509317082E
:103790004093160890931D0880931C0830930B08E3
:1037A00020930A088BE997E090931F0880931E08E6
:1037B000DF91CF9108958091A10D9091A20D0E946B
:1037C000CB2A8091A80D9091A90D0E94CB2A8091BF
:1037D000AF0D9091B00D0E94CB2A8091B60D9091C3
:1037E000B70D0C94CB2ACF93DF930E944A0F0E940F
:1037F000870E0E94E6100E94070D0E94D50C0E94C1
:10380000181261E088E00E944E2860E088E00E9483
:103810008A2889E498E09093F00D8093EF0D81E081
:1038200080936F0080E18093810040E051EE60E082
:1038300070E081E59FE00E94CD3281E59FE00E942B
:10384000793040E855E260E070E08FE29FE00E944E
:10385000CD328FE29FE00E94793024EF31E040E0EA
:1038600050E068EB7BE085E30E94272C6CE271E07E
:1038700080E090E00E9435292AEF30E040E050E0FF
:1038800060EA7FE085E30E94272C4091F508509183
:10389000F6086091F7087091F8088091F30890910C
:1038A000F4080E94CD3210926A0D1092690D1092A8
:1038B0006C0D10926B0D1092700D10926F0D109296
:1038C0006E0D10926D0D6FEC78E081EF98E00E9424
:1038D000EA0FC7E3DDE0FE0180E090E02191319145
:1038E000232B81F4FC01EE0FFF1FE95CF24F2DEB5F
:1038F00038E0318320838C599F4F9093C008809388
:10390000BF0804C001968931910541F7E7E3FDE066
:1039100080E090E021913191232B81F4FC01EE0FA6
:10392000FF1FE95CF24F20EB38E0318320838C5994
:103930009F4F9093B3088093B20804C001968931D9
:10394000910541F764EA78E081EF98E00E94EA0F80
:10395000E7E3FDE080E090E021913191232B81F4B9
:10396000FC01EE0FFF1FE95CF24F28E938E03183DC
:1039700020838C599F4F90939B0880939A0804C092
:1039800001968931910541F76CE878E081EF98E084
:103990000E94EA0FE7E3FDE080E090E021913191A1
:1039A000232B81F4FC01EE0FFF1FE95CF24F20E8AE
:1039B00038E0318320838C599F4F90938308809304
:1039C000820804C001968931910541F764E778E0E7
:1039D00081EF98E00E94EA0FE7E3FDE080E090E0ED
:1039E00021913191232B81F4FC01EE0FFF1FE95C43
:1039F000F24F2DE438E0318320838C599F4F909310
:103A0000500880934F0804C001968931910541F711
:103A100061E478E081EF98E00E94EA0F80E090E0B6
:103A200029913991232B81F4FC01EE0FFF1FE95CF2
:103A3000F24F20E238E0318320838C599F4F9093DE
:103A400023088093220804C001968931910541F72B
:103A50008091730D811105C081EF98E00E94D2150D
:103A6000F7CF4EEB55E062E081EF98E00E94D81767
:103A700022E330E040E050E060EA7FE085E30E942E
:103A8000272C66E970E080E090E00E94352922E36F
:103A900030E040E050E060EA7FE085E30E94272CC0
:103AA0006CE271E080E090E00E94352924E630E08D
:103AB00040E050E060EA7FE085E30E94272C6CE262
:103AC00071E080E090E00E94352924E630E040E09B
:103AD00050E060EA7FE085E3DF91CF910C94272CE2
:103AE000CF92DF92EF92FF92CF93DF93CDB7DEB705
:103AF00061970FB6F894DEBF0FBECDBF88E30E947A
:103B0000BD29853F91402CF08091DD08882309F480
:103B100061C288E30E94BD29843F914024F48091D2
:103B2000DD0881115FC20E940429C090BE0DD090B3
:103B3000BF0DE090C00DF090C10DAB01BC014C1960
:103B40005D096E097F098091020290910302092E9E
:103B5000000CAA0BBB0B84179507A607B70770F4D8
:103B60008DEE9DE00E9406210E9404296093BE0D07
:103B70007093BF0D8093C00D9093C10D8FE29FE0B5
:103B80000E942D30181619061CF54AE06FE27FE0FE
:103B9000CE010B960E940A2B20E030E04AE050E074
:103BA000BE016F5F7F4FCE010B960E94F82BCE01B6
:103BB00001960E9400370E940B35CB010E948C0FAA
:103BC0009093DC088093DB08CE010B960E94322B89
:103BD0000E940429C090D90DD090DA0DE090DB0D41
:103BE000F090DC0DAB01BC014C195D096E097F0939
:103BF0008091200290912102092E000CAA0BBB0B90
:103C000084179507A607B70708F0C4C086E30E948B
:103C1000BD29BC01990F880B990B0E944335209157
:103C200010023091110240911202509113020E9431
:103C3000F835209108023091090240910A02509112
:103C40000B020E9499346093E9087093EA0880930C
:103C5000EB089093EC0887E30E94BD29BC01990F03
:103C6000880B990B0E944335209114023091150264
:103C700040911602509117020E94F83520910C02D3
:103C800030910D0240910E0250910F020E94993422
:103C90006093E5087093E6088093E7089093E8083E
:103CA0008DEE9DE00E94952120E030E040E450E45C
:103CB0000E9427346B017C016093ED087093EE083D
:103CC0008093EF089093F00820E030E040EA51E460
:103CD0000E94943487FF0EC020E030E040E850E4BA
:103CE000C701B6010E94F335181624F481E08093D1
:103CF000D80D02C01092D80DC090E508D090E6080B
:103D0000E090E708F090E80820E030E048E251E475
:103D1000C701B6010E94943487FF0EC020E030E056
:103D200040EA50E4C701B6010E94F335181624F4A6
:103D300081E08093CB0D02C01092CB0DC090E908BA
:103D4000D090EA08E090EB08F090EC0820E030E03A
:103D500040EB50E4C701B6010E94943487FF0EC0C7
:103D600020E030E040E450E4C701B6010E94F335A2
:103D7000181624F481E08093CA0D02C01092CA0D77
:103D80000E9404296093D90D7093DA0D8093DB0DA6
:103D90009093DC0D0E940429C090CC0DD090CD0DE5
:103DA000E090CE0DF090CF0DAB01BC014C195D0938
:103DB0006E097F0980911A0290911B02092E000C56
:103DC000AA0BBB0B84179507A607B70760F40E94E0
:103DD000CB0C0E9404296093CC0D7093CD0D809381
:103DE000CE0D9093CF0D0E940429C090D00DD0909D
:103DF000D10DE090D20DF090D30DAB01BC014C1968
:103E00005D096E097F0980911C0290911D02092EA7
:103E1000000CAA0BBB0B84179507A607B707C0F4C5
:103E200089E30E94BD29853F914024F081E0809381
:103E3000DE0802C01092DE080E94710F0E94042961
:103E40006093D00D7093D10D8093D20D9093D30DCC
:103E50008091D80D8823B9F10E94042920911E0277
:103E600030911F02C090D40DD090D50DE090D60DAA
:103E7000F090D70DDC01CB018C199D09AE09BF096B
:103E80006901032E000CEE08FF08C816D906EA06E1
:103E9000FB06C8F437FF02C02F5F3F4F35952795CB
:103EA000032E000C440B550B60EA7FE085E30E9473
:103EB000272C0E9404296093D40D7093D50D809314
:103EC000D60D9093D70D8091CB0D8823B9F10E9428
:103ED00004292091060230910702C090C60DD090AF
:103EE000C70DE090C80DF090C90DDC01CB018C1915
:103EF0009D09AE09BF096901032E000CEE08FF08F9
:103F0000C816D906EA06FB06C8F437FF02C02F5FC1
:103F10003F4F35952795032E000C440B550B64E954
:103F200071E185E30E94272C0E9404296093C60D4D
:103F30007093C70D8093C80D9093C90D8091CA0DE1
:103F40008823B9F10E9404292091040230910502CE
:103F5000C090C20DD090C30DE090C40DF090C50D7F
:103F6000DC01CB018C199D09AE09BF096901032E43
:103F7000000CEE08FF08C816D906EA06FB06C8F4CE
:103F800037FF02C02F5F3F4F35952795032E000C5A
:103F9000440B550B68E873E185E30E94272C0E94CF
:103FA00004296093C20D7093C30D8093C40D909348
:103FB000C50D81EF98E00E94D21561960FB6F89476
:103FC000DEBF0FBECDBFDF91CF91FF90EF90DF90AE
:103FD000CF9008958DEE9DE00E94062181E08093B0
:103FE000DD08A1CD1092DD089ECD41E050E066EEE7
:103FF00075E08FE29FE00E94A12A6AE070E080E015
:1040000090E00E94352941E050E066EE75E08FE2D5
:104010009FE00C94A12ACB010C94B638CB01642FFD
:104020000C94BE381F920F920FB60F9211240BB64C
:104030000F922F933F934F935F936F937F938F9341
:104040009F93AF93BF93EF93FF93E091EF0DF091A8
:10405000F00D1995FF91EF91BF91AF919F918F91C5
:104060007F916F915F914F913F912F910F900BBE78
:104070000F900FBE0F901F901895DC01ED91FC91F1
:104080000190F081E02D199470E075956795FC0121
:10409000608384EF9DE00C948323CF92DF92EF92B4
:1040A000FF920F931F93CF93DF931F92CDB7DEB78D
:1040B000790184EF9DE049830E94A6234981642F02
:1040C00084EF9DE00E943A23670110E0C6018E193B
:1040D0009F098017910744F4F60161916F0184EF05
:1040E0009DE00E943A23F2CF84EF9DE00F90DF9194
:1040F000CF911F910F91FF90EF90DF90CF900C9494
:10410000C3230F93CF93DF9300D000D0CDB7DEB79A
:1041100079836A835B834C833D832E8306E09E0113
:104120002F5F3F4F44EFFC0160810E944D20269697
:104130000FB6F894DEBF0FBECDBFDF91CF910F91C8
:1041400008950F93CF93DF9300D000D0CDB7DEB7A3
:1041500079836A835B834C833D832E8306E09E01D3
:104160002F5F3F4F4CEEFC0160810E944D20269650
:104170000FB6F894DEBF0FBECDBFDF91CF910F9188
:1041800008950F93CF93DF9300D01F921F92CDB766
:10419000DEB79E012F5F3F4F75E0F90111927A95CE
:1041A000E9F77AEA7C8375E57D8369835A834B83DB
:1041B00005E04FEEFC0160810E944D200F900F90B2
:1041C0000F900F900F90DF91CF910F9108950F9363
:1041D000CF93DF9300D01F921F92CDB7DEB76983D4
:1041E0005A834B833C832D8305E09E012F5F3F4F15
:1041F0004AEFFC0160810E944D200F900F900F90BC
:104200000F900F90DF91CF910F9108950F93CF935F
:10421000DF931F921F92CDB7DEB72AEA298325E5E7
:104220002A8302E09E012F5F3F4F4CEFFC0160812B
:104230000E944D200F900F90DF91CF910F91089524
:104240001F93CF93DF931F92CDB7DEB7162F84EF66
:104250009DE049830E94A6234981642F84EF9DE05D
:104260000E943A2384EF9DE00E94C323612F70E0F7
:1042700041E050E084EF9DE00E94A32384EF9DE0A5
:104280000E94AE22892B29F084EF9DE00E94B62285
:1042900001C08FEF0F90DF91CF911F91089543EDF3
:1042A000FC0160810C9420210F931F93CF93DF9327
:1042B00000D0CDB7DEB7162F19821A8284EF9DE0A9
:1042C0004B830E94A6234B81642F84EF9DE00E94C4
:1042D0003A2384EF9DE00E94C323612F70E042E007
:1042E00050E084EF9DE00E94A3238E010F5F1F4FDB
:1042F00084EF9DE00E94AE22892B41F084EF9DE087
:104300000E94B622F80181938F01F2CF898190E05B
:10431000982F88272A81820F911D0F900F900F9060
:10432000DF91CF911F910F91089545EDFC016081C0
:104330000E945421BC01990F880B990B0E944335B0
:1043400020E030E040E251E40E949934089542EDCB
:10435000FC0160810C94542141EDFC0160810C94BE
:10436000542140EDFC0160810C9454218F929F9266
:10437000AF92BF92CF92DF92EF92FF920F931F9373
:10438000CF93DF9300D000D0CDB7DEB74C016B01E7
:104390007A018901CE0101965C0186E0F501119256
:1043A0008A95E9F7F401608184EF9DE00E94A623DD
:1043B00068ED70E084EF9DE00E943D2084EF9DE079
:1043C0000E94C323F401608170E046E050E084EF76
:1043D0009DE00E94A32384EF9DE00E94AE22892BE2
:1043E00041F084EF9DE00E94B622F50181935F01C8
:1043F000F2CF898190E0982F88272A81820F911D22
:10440000F601918380838B8190E0982F88272C81FF
:10441000820F911DF701918380838D8190E0982F09
:1044200088272E81820F911DF80191838083269623
:104430000FB6F894DEBF0FBECDBFDF91CF911F91B5
:104440000F91FF90EF90DF90CF90BF90AF909F9033
:104450008F900895AF92BF92CF92DF92EF92FF922A
:104460000F931F93CF93DF9300D0CDB7DEB78C01AE
:104470005B016A01790119821A821B82FC01608149
:1044800084EF9DE00E94A6236EEF70E084EF9DE034
:104490000E943D2084EF9DE00E94C323F8018081AB
:1044A000682F70E043E050E084EF9DE00E94A3237A
:1044B0008E010F5F1F4F84EF9DE00E94AE22892B7B
:1044C00041F084EF9DE00E94B622F80181938F01B4
:1044D000F2CF8981F50180838A81F60180838B8107
:1044E000F70180830F900F900F90DF91CF911F9174
:1044F0000F91FF90EF90DF90CF90BF90AF90089515
:10450000CF92DF92EF92FF920F931F93CF93DF939F
:104510008C01EB01688179818A819B8120E03AECF2
:104520004AE95BE30E948936F801C080D180E280CD
:10453000F380C20ED31EE41EF51EC082D182E28239
:10454000F382688379838A839B83DF91CF911F9164
:104550000F91FF90EF90DF90CF9008958091280EFB
:1045600090E02091290E821B910908959091290EC7
:104570008091280E981750F4E92FF0E0E65DF14F96
:10458000208130E09F5F9093290E02C02FEF3FEF14
:10459000C9010895E091290E8091280EE81730F4A2
:1045A000F0E0E65DF14F808190E008958FEF9FEF9E
:1045B00008950895AC01E091000EF091010E30973E
:1045C000E1F09091290E8091280E9817B0F090E0BC
:1045D000292F30E02617370754F4DA01A20FB31F52
:1045E0008C91D901A65DB14F8C939F5FF1CF109252
:1045F000290E6093280ECB0119940895E091020EC4
:10460000F091030E309729F01092060E1092050ECD
:1046100019940895CF92DF92EF92FF920F931F9318
:10462000CF93DF937C01262F972F8A018091040E70
:10463000882391F0C62FD72F6E01C40ED51ECC153E
:10464000DD0571F06991D701ED91FC910190F08148
:10465000E02DC7011995F3CF642F822F0E94822489
:10466000C801DF91CF911F910F91FF90EF90DF90E4
:10467000CF900895CF93DF931F92CDB7DEB76983B4
:104680002091040E2223D1F02091050E203240F01B
:1046900021E030E0FC013383228380E090E015C00C
:1046A0008091060EE82FF0E0E95FF14F9981908349
:1046B0008F5F8093060E8093050E05C061E0CE01EA
:1046C00001960E94822481E090E00F90DF91CF91CB
:1046D0000895FC011382128288EE93E0A0E0B0E01E
:1046E00084839583A683B7838AEE97E09183808342
:1046F00008951092290E1092280E1092060E109214
:10470000050E0C94CA23CF93DF93EC01862F0E94F1
:10471000E8238EEF92E20E94A0248AED92E20E94AA
:104720009B24CE01DF91CF910C947923862F4132C7
:1047300008F040E26AE27EE00E94EC231092290E2B
:104740008093280E089521E00C94962381E08093B5
:10475000040E6093270E1092060E1092050E089517
:104760000F93062F21E04091050E67E07EE08091D7
:10477000270E0E9430241092060E1092050E109201
:10478000040E0F91089561E00C94B02384EF9DE036
:104790000C9469231092B70E81E08093B50E1092AD
:1047A000B40E61E084E10E948A2861E085E10E9404
:1047B0008A28E9EBF0E080818E7F808380818D7F85
:1047C000808388E48093B80085E48093BC000895DA
:1047D000880F8093BA000895413208F03FC090914D
:1047E000B70E9111FCCF91E09093B70E2093B50EC8
:1047F0002FEF20934A0E10928F0E240F20938E0ECF
:104800009093B60E9091B60E880F892B8093B60EBA
:104810008091B40E813041F41092B40E8091B60EA6
:104820008093BB0085EC01C085EE8093BC00809135
:10483000B70E8130E1F380918F0E841710F4409110
:104840008F0E20E93EE0FB01D9018A2F821B8417DD
:1048500018F48D918193F9CF842F089580E0089505
:104860000F93413208F046C09091B70E9111FCCFE2
:1048700032E03093B70E0093B50E3FEF30934A0EFF
:1048800010928F0E40938E0EFB0160E97EE0DB01FB
:104890003A2F361B341718F431913D93F9CF10920B
:1048A000B60E3091B60E880F832B8093B60E809192
:1048B000B40E813041F41092B40E8091B60E809304
:1048C000BB0085EC01C085EE8093BC00222321F063
:1048D0008091B70E8230D1F380914A0E8F3F79F0EC
:1048E00080914A0E803241F080914A0E803331F03F
:1048F00094E005C091E003C092E001C093E0892FED
:104900000F910895613298F42091B70E243089F404
:1049100060936C0EFC012EE63EE0D9018A2F821BCB
:10492000861718F481918D93F9CF80E0089581E086
:10493000089582E008959093B10E8093B00E08958B
:104940009093B30E8093B20E089585ED8093BC00D2
:104950008091BC0084FDFCCF1092B70E089585ECC9
:104960008093BC001092B70E08951F920F920FB65D
:104970000F9211240BB60F922F933F934F935F9397
:104980006F937F938F939F93AF93BF93EF93FF9317
:104990008091B900887F803609F49CC068F5883220
:1049A00009F45BC090F4803109F454C038F48823D2
:1049B00009F4F5C0883009F44DC0F5C0883109F418
:1049C0004CC0803209F45DC0EEC0803409F468C088
:1049D00048F4803309F455C0883309F0E4C080936B
:1049E0004A0EA8C0803509F44FC0883509F45DC06F
:1049F000883409F0D8C0D5C0883909F4C6C0A8F4F5
:104A0000883709F467C038F4883609F463C0803702
:104A100009F460C0C8C0883809F4B7C0803909F407
:104A20005FC0803809F0BFC05BC0803B09F485C01F
:104A300038F4803A09F466C0883A09F47EC0B3C0FD
:104A4000803C09F4A6C0883C09F4A3C0883B09F463
:104A500089C0A9C08091B60E10C090918F0E809130
:104A60008E0E981770F5E0918F0E81E08E0F809377
:104A70008F0EF0E0E057F14F80818093BB0085EC12
:104A800085C080934A0E8DC0E0918F0E81E08E0F1D
:104A900080938F0E8091BB00F0E0E057F14F808350
:104AA00090918F0E80918E0E6DC0E0918F0E81E0FF
:104AB0008E0F80938F0E8091BB00F0E0E057F14F96
:104AC00080838091B50E81116CC081E08093B40E1B
:104AD00084EA60C083E08093B70E10924B0ECFCF74
:104AE00080914B0E803208F050C0E0914B0E81E077
:104AF0008E0F80934B0E8091BB00F0E0E45BF14F92
:104B00008083BDCF80914B0E803230F4E0914B0E0C
:104B1000F0E0E45BF14F10820E94A52460914B0EFF
:104B200070E0E091B00EF091B10E8CE49EE019952A
:104B300010924B0E0E94AF2436C084E08093B70ED3
:104B400010926D0E10926C0EE091B20EF091B30EB9
:104B5000199580916C0E811105C081E080936C0ED7
:104B600010926E0EE0916D0E81E08E0F80936D0EAF
:104B7000F0E0E259F14F80818093BB0090916D0E7F
:104B800080916C0E981708F47ACF85E88093BC006A
:104B90000AC085EC8093BC001092B70E04C010923E
:104BA0004A0E0E94A524FF91EF91BF91AF919F9172
:104BB0008F917F916F915F914F913F912F910F90C6
:104BC0000BBE0F900FBE0F901F901895CF93DF93E1
:104BD0008230910510F482E090E0E0919511F0911F
:104BE000961120E030E0C0E0D0E0309711F1408134
:104BF000518148175907C0F04817590761F482815D
:104C00009381209719F09B838A832BC090939611F0
:104C10008093951126C02115310519F042175307CD
:104C200018F49A01BE01DF01EF010280F381E02D4B
:104C3000DCCF2115310509F1281B390B2430310552
:104C400090F412968D919C9113976115710521F046
:104C5000FB019383828304C09093961180939511F6
:104C6000FD01329644C0FD01E20FF31F8193919341
:104C7000225031092D933C933AC0209193113091E9
:104C80009411232B41F42091300230913102309362
:104C900094112093931120912E0230912F0221150F
:104CA000310541F42DB73EB74091320250913302A5
:104CB000241B350BE0919311F0919411E217F30747
:104CC000A0F42E1B3F0B2817390778F0AC014E5F7C
:104CD0005F4F2417350748F04E0F5F1F5093941114
:104CE000409393118193919302C0E0E0F0E0CF01F3
:104CF000DF91CF9108950F931F93CF93DF93009788
:104D000009F48CC0FC013297138212820091951134
:104D1000109196110115110581F420813181820FC6
:104D2000931F20919311309194112817390779F529
:104D3000F0939411E093931171C0D80140E050E0DA
:104D4000AE17BF0750F412962D913C911397AD0109
:104D50002115310509F1D901F3CF9D01DA01338322
:104D6000228360817181860F971F8217930769F4F0
:104D7000EC0128813981260F371F2E5F3F4F318389
:104D800020838A819B8193838283452B29F4F0932E
:104D90009611E093951142C01396FC93EE931297EF
:104DA000ED01499159919E01240F351FE217F30738
:104DB00071F480819181840F951F029611969C93C6
:104DC0008E938281938113969C938E931297E0E049
:104DD000F0E0D80112968D919C911397009719F0ED
:104DE000F8018C01F6CF8D919C9198012E5F3F4F79
:104DF000820F931F20919311309194112817390736
:104E000069F4309729F4109296111092951102C00E
:104E1000138212821093941100939311DF91CF911A
:104E20001F910F9108956F927F928F929F92AF92F0
:104E3000BF92CF92DF92EF92FF920F931F93CF9387
:104E4000DF93EC01009789F4CB01DF91CF911F91A3
:104E50000F91FF90EF90DF90CF90BF90AF909F9019
:104E60008F907F906F900C94E625FC01E60FF71F62
:104E70009C0122503109E217F30708F4ACC0D901B4
:104E80000D911C91119706171707B0F00530110509
:104E900008F49FC0C80104978617970708F499C0C3
:104EA00002501109061B170B019311936D937C930C
:104EB000CF010E947B268DC05B01A01AB10A4C0174
:104EC000800E911EA0919511B091961140E050E096
:104ED000E12CF12C109709F44AC0A815B905D1F5B9
:104EE0006D907C901197630182E0C80ED11CCA14AA
:104EF000DB0480F1A3014A195B096A0182E0C80E54
:104F0000D11C1296BC9012971396AC91B5E0CB16BB
:104F1000D10440F0B282A38351834083D9016D93C1
:104F20007C930AC00E5F1F4FC301800F911FF901D0
:104F300091838083EB2DFA2FE114F10431F0D70136
:104F40001396FC93EE93129744C0F0939611E0935E
:104F500095113FC08D919C9111974817590708F4FE
:104F6000AC017D0112960D90BC91A02DB3CF809124
:104F700093119091941188159905E1F446175707FC
:104F8000C8F480912E0290912F02009741F48DB7C2
:104F90009EB74091320250913302841B950BE81763
:104FA000F907C8F4F0939411E0939311F901718318
:104FB00060830FC0CB010E94E6257C01009759F069
:104FC000A801BE010E940D37CE010E947B26C701B9
:104FD00004C0CE0102C080E090E0DF91CF911F912C
:104FE0000F91FF90EF90DF90CF90BF90AF909F9088
:104FF0008F907F906F90089590E0FC013197E131A0
:10500000F10508F04AC08827EE58FF4F8F4F0C94E7
:10501000CA36809180008F7703C0809180008F7D99
:1050200080938000089584B58F7702C084B58F7D0A
:1050300084BD08958091B0008F7703C08091B00047
:105040008F7D8093B0000895809190008F7707C086
:10505000809190008F7D03C080919000877F809326
:10506000900008958091A0008F7707C08091A000E4
:105070008F7D03C08091A000877F8093A00008955A
:10508000809120018F7707C0809120018F7D03C020
:1050900080912001877F809320010895CF93DF9333
:1050A00090E0FC01EA5FFB4F2491FC01E45BFB4FC5
:1050B0008491882361F190E0880F991FFC01E455E9
:1050C000FB4FC591D491FC01EE56FB4FA591B491D5
:1050D000611109C09FB7F894888120958223888345
:1050E000EC912E230BC0623061F49FB7F8943881A5
:1050F000822F809583238883EC912E2B2C939FBF46
:1051000006C08FB7F894E8812E2B28838FBFDF91DC
:10511000CF9108951F93CF93DF93282F30E0F901AB
:10512000E054FC4F8491F901EA5FFB4FD491F901FF
:10513000E45BFB4FC491CC23C9F0162F81110E9470
:10514000FC27EC2FF0E0EE0FFF1FEE56FB4FA59172
:10515000B4918FB7F894111105C09C91ED2FE09593
:10516000E92302C0EC91ED2BEC938FBFDF91CF913F
:105170001F9108951F920F920FB60F9211242F9333
:105180003F938F939F93AF93BF938091B90E90916C
:10519000BA0EA091BB0EB091BC0E3091B80E23E0B8
:1051A000230F2D3720F40196A11DB11D05C026E85F
:1051B000230F0296A11DB11D2093B80E8093B90E46
:1051C0009093BA0EA093BB0EB093BC0E8091BD0E0F
:1051D0009091BE0EA091BF0EB091C00E0196A11D80
:1051E000B11D8093BD0E9093BE0EA093BF0EB093E1
:1051F000C00EBF91AF919F918F913F912F910F90D2
:105200000FBE0F901F9018952FB7F8946091B90EAC
:105210007091BA0E8091BB0E9091BC0E2FBF089575
:105220003FB7F8948091BD0E9091BE0EA091BF0E35
:10523000B091C00E26B5A89B05C02F3F19F001966E
:10524000A11DB11D3FBFBA2FA92F982F8827820F0C
:10525000911DA11DB11DBC01CD0142E0660F771F5C
:10526000881F991F4A95D1F70895CF92DF92EF9248
:10527000FF92CF93DF936B017C010E941029EB0119
:10528000C114D104E104F10479F00E9410296C1BCF
:105290007D0B683E7340A0F381E0C81AD108E10895
:1052A000F108C851DC4FECCFDF91CF91FF90EF9028
:1052B000DF90CF900895789484B5826084BD84B5E2
:1052C000816084BD85B5826085BD85B5816085BD01
:1052D000EEE6F0E0808181608083E1E8F0E010821A
:1052E000808182608083808181608083E0E8F0E05B
:1052F000808181608083E1EBF0E080818460808345
:10530000E0EBF0E0808181608083E1E9F0E0808182
:1053100082608083808181608083E0E9F0E0808129
:1053200081608083E1EAF0E0808182608083808117
:1053300081608083E0EAF0E0808181608083E1E247
:10534000F1E0808182608083808181608083E0E2FF
:10535000F1E0808181608083EAE7F0E08081846011
:10536000808380818260808380818160808380816E
:10537000806880831092C1000895863308F08653B8
:1053800090917B00282F2870977F922B90937B0021
:1053900087702091340290E4299F90011124822B80
:1053A00080937C0080917A00806480937A00809161
:1053B0007A0086FDFCCF809178002091790090E002
:1053C000922B08951F93CF93DF93182FEB0161E089
:1053D0000E944E28209711F460E004C0CF3FD10511
:1053E00039F461E0812FDF91CF911F910C948A28CD
:1053F000E12FF0E0E054FC4FE4914E2F50E0FA0131
:105400003197E131F10508F093C08827ED57FF4F40
:105410008F4F0C94CA3684B5806884BDC7BD8DC0DB
:1054200084B5806284BDC8BD88C0809180008068DA
:1054300080938000D0938900C09388007EC08091C3
:105440008000806280938000D0938B00C0938A009C
:1054500074C08091B00080688093B000C093B300A6
:105460006CC08091B00080628093B000C093B400A3
:1054700064C080919000806880939000D0939900E0
:10548000C09398005AC080919000806280939000F1
:10549000D0939B00C0939A0050C080919000886088
:1054A00080939000D0939D00C0939C0046C0809153
:1054B000A00080688093A0008091A0008F7B8093E3
:1054C000A000D093A900C093A80037C08091A0008D
:1054D00080628093A000D093AB00C093AA002DC03F
:1054E0008091A00088608093A000D093AD00C0930D
:1054F000AC0023C080912001806880932001D0936C
:105500002901C093280119C08091200180628093F5
:105510002001D0932B01C0932A010FC0809120015C
:10552000886080932001D0932D01C0932C0105C089
:10553000C038D1050CF055CF4FCFDF91CF911F91DF
:105540000895CF92DF92EF92FF920F931F93CF9324
:10555000DF936C01EB017B01E40EF51E00E010E02F
:10556000CE15DF0561F06991D601ED91FC910190B6
:10557000F081E02DC6011995080F191FF1CFC80160
:10558000DF91CF911F910F91FF90EF90DF90CF901F
:1055900008950C94E6250C947B260E945B290E94BA
:1055A000F31BC0EBD1E30E94701D2097E1F30E9432
:1055B000B031F9CF0F931F93CF93DF93EC010E948B
:1055C0000429688779878A879B87E881F981068023
:1055D000F781E02DCE01199597FF17C00E9404298D
:1055E000088519852A853B85DC01CB01801B910B41
:1055F000A20BB30B0C811D812E813F818017910777
:10560000A207B30710F38FEF9FEFDF91CF911F91A8
:105610000F910895EF92FF920F931F93CF93DF9313
:10562000EC017B01042F68E375E00E94A02BC70109
:105630000E94DA2A002E000C110B97FD0BC0801778
:10564000910741F0682FCE010E94E42BC7010E9410
:10565000DA2AF3CFCE01DF91CF911F910F91FF9006
:10566000EF900895FC01808191810C947B26CF936B
:10567000DF93EC0188819981009711F00E947B26CD
:10568000198218821D821C821B821A82DF91CF919F
:1056900008950F931F93CF93DF93EC018B016F5FFE
:1056A0007F4F888199810E941327009731F0998359
:1056B00088831B830A8381E001C080E0DF91CF9162
:1056C0001F910F910895CF93DF93EC018881998109
:1056D000892B29F08A819B818617970760F4CE0178
:1056E0000E94492B882341F08C819D81892B19F4DC
:1056F000E881F981108281E0DF91CF910895EF92E6
:10570000FF920F931F93CF93DF93EC017B018A01EC
:10571000BA010E94632B811104C0CE010E94372B75
:1057200007C01D830C83B701888199810E941637B9
:10573000CE01DF91CF911F910F91FF90EF900895CF
:10574000FC01118210821382128215821482168249
:105750006115710551F0FB0101900020E9F73197C7
:10576000AF01461B570B0C947F2B0895EF92FF92CD
:105770000F931F93CF93DF93FC0124813581611533
:10578000710511F480E019C041155105A9F07B01A4
:10579000EC018A01020F131FB8010E94632B8823BA
:1057A00089F3288139818C819D81B701820F931FF4
:1057B0000E9416371D830C8381E0DF91CF911F91EA
:1057C0000F91FF90EF900895CF93DF931F921F9258
:1057D000CDB7DEB769831A8241E050E0BE016F5F4A
:1057E0007F4F0E94B62B0F900F90DF91CF910895BD
:1057F0000F931F93CF93DF934115510519F1611555
:10580000710501F1DC011496ED91FC9115972E17AD
:105810003F0718F0FB01108215C0E21BF30BEA01F1
:105820002197EC17FD0708F4EF018B01FC01608163
:105830007181620F731FAE01C8010E941D37C00F36
:10584000D11F1882DF91CF911F910F9108953F9240
:105850004F925F926F927F928F929F92AF92BF9280
:10586000CF92DF92EF92FF920F931F93CF93DF932C
:1058700000D01F92CDB7DEB729013A0190913502D1
:10588000981721F09F3F09F02BC304C0E6ECF4E029
:10589000349004C180933502E6ECF4E0E491EF3FEC
:1058A00009F41EC3E23009F480C074F5EE2309F454
:1058B0005BC0E13009F0F1C01092800010928100CD
:1058C0009091810098609093810090918100916007
:1058D00090938100282F30E0F901E45BFB4FE491C5
:1058E000F0E0EE0FFF1FEE56FB4F459154915093A1
:1058F000DF0E4093DE0EF901EA5FFB4FE491E09387
:10590000DD0E33243394CCC0E43009F49EC00CF493
:1059100074C0E53009F0C1C010922001109221013D
:1059200090912101986090932101909121019160C3
:1059300090932101482F50E0FA01E45BFB4FE49182
:10594000F0E0EE0FFF1FEE56FB4F259134913093A0
:10595000C30E2093C20EFA01EA5FFB4FE491E0937D
:10596000C10EB5E03B2E9CC014BC15BC94B5926032
:1059700094BD95B5916095BD282F30E0F901E45BA9
:10598000FB4FE491F0E0EE0FFF1FEE56FB4F459109
:1059900054915093E60E4093E50EF901EA5FFB4FF8
:1059A000E491E093E40E312C7BC01092B000109291
:1059B000B1009091B00092609093B0009091B100CE
:1059C00091609093B100282F30E0F901E45BFB4F28
:1059D000E491F0E0EE0FFF1FEE56FB4F459154911E
:1059E0005093D80E4093D70EF901EA5FFB4FE49134
:1059F000E093D60E52E0352E53C0109290001092D4
:105A000091009091910098609093910090919100F5
:105A1000916090939100282F30E0F901E45BFB4FF7
:105A2000E491F0E0EE0FFF1FEE56FB4F45915491CD
:105A30005093D10E4093D00EF901EA5FFB4FE491F1
:105A4000E093CF0E23E0322E2BC01092A0001092D4
:105A5000A1009091A10098609093A1009091A10065
:105A600091609093A100282F30E0F901E45BFB4F97
:105A7000E491F0E0EE0FFF1FEE56FB4F459154917D
:105A80005093CA0E4093C90EF901EA5FFB4FE491AF
:105A9000E093C80E04E0302E03C03E2E37FC20C237
:105AA0008B0161E00E944E284801A12CB12C832D6E
:105AB0008D7F09F0B4C060E072E18AE790E0A50153
:105AC00094010E94AB3629833A834B835C8369013E
:105AD0007A0121E0C21AD108E108F1088FEFC81657
